{
  "contractName": "AdGridSystem",
  "abi": [
    {
      "constant": true,
      "inputs": [],
      "name": "dailyPrize",
      "outputs": [
        {
          "name": "",
          "type": "uint256"
        }
      ],
      "payable": false,
      "stateMutability": "view",
      "type": "function"
    },
    {
      "constant": true,
      "inputs": [
        {
          "name": "",
          "type": "address"
        }
      ],
      "name": "balances",
      "outputs": [
        {
          "name": "",
          "type": "uint256"
        }
      ],
      "payable": false,
      "stateMutability": "view",
      "type": "function"
    },
    {
      "constant": true,
      "inputs": [],
      "name": "publishPrice",
      "outputs": [
        {
          "name": "",
          "type": "uint256"
        }
      ],
      "payable": false,
      "stateMutability": "view",
      "type": "function"
    },
    {
      "inputs": [],
      "payable": false,
      "stateMutability": "nonpayable",
      "type": "constructor"
    },
    {
      "anonymous": false,
      "inputs": [
        {
          "indexed": false,
          "name": "sender",
          "type": "address"
        }
      ],
      "name": "PublishAd",
      "type": "event"
    },
    {
      "anonymous": false,
      "inputs": [
        {
          "indexed": false,
          "name": "sender",
          "type": "address"
        },
        {
          "indexed": false,
          "name": "isReady",
          "type": "bool"
        }
      ],
      "name": "DailyGetETH",
      "type": "event"
    },
    {
      "constant": true,
      "inputs": [
        {
          "name": "_people",
          "type": "address"
        }
      ],
      "name": "isReady",
      "outputs": [
        {
          "name": "",
          "type": "bool"
        }
      ],
      "payable": false,
      "stateMutability": "view",
      "type": "function"
    },
    {
      "constant": false,
      "inputs": [],
      "name": "Publish",
      "outputs": [],
      "payable": true,
      "stateMutability": "payable",
      "type": "function"
    },
    {
      "constant": false,
      "inputs": [],
      "name": "GetDailyETH",
      "outputs": [],
      "payable": true,
      "stateMutability": "payable",
      "type": "function"
    },
    {
      "constant": true,
      "inputs": [],
      "name": "contractBalance",
      "outputs": [
        {
          "name": "",
          "type": "uint256"
        }
      ],
      "payable": false,
      "stateMutability": "view",
      "type": "function"
    },
    {
      "constant": false,
      "inputs": [
        {
          "name": "_publishPrice",
          "type": "uint256"
        }
      ],
      "name": "setPublishPrice",
      "outputs": [],
      "payable": false,
      "stateMutability": "nonpayable",
      "type": "function"
    },
    {
      "constant": false,
      "inputs": [
        {
          "name": "_dailyPrize",
          "type": "uint256"
        }
      ],
      "name": "setdailyPrize",
      "outputs": [],
      "payable": false,
      "stateMutability": "nonpayable",
      "type": "function"
    }
  ],
  "bytecode": "0x6080604052600a60005566038d7ea4c68000600155662386f26fc1000060025534801561002b57600080fd5b5033600360006101000a81548173ffffffffffffffffffffffffffffffffffffffff021916908373ffffffffffffffffffffffffffffffffffffffff16021790555061058e8061007c6000396000f300608060405260043610610099576000357c0100000000000000000000000000000000000000000000000000000000900463ffffffff168063084ab36e1461009e57806312e60d2b146100c957806327e235e3146100d35780633552f5a41461012a578063600d09f5146101855780636abbe89c146101b25780638b7afe2e146101df578063971c48451461020a578063d58d650e14610235575b600080fd5b3480156100aa57600080fd5b506100b361023f565b6040518082815260200191505060405180910390f35b6100d1610245565b005b3480156100df57600080fd5b50610114600480360381019080803573ffffffffffffffffffffffffffffffffffffffff1690602001909291905050506102bb565b6040518082815260200191505060405180910390f35b34801561013657600080fd5b5061016b600480360381019080803573ffffffffffffffffffffffffffffffffffffffff1690602001909291905050506102d3565b604051808215151515815260200191505060405180910390f35b34801561019157600080fd5b506101b060048036038101908080359060200190929190505050610335565b005b3480156101be57600080fd5b506101dd6004803603810190808035906020019092919050505061039b565b005b3480156101eb57600080fd5b506101f4610401565b6040518082815260200191505060405180910390f35b34801561021657600080fd5b5061021f610420565b6040518082815260200191505060405180910390f35b61023d610426565b005b60015481565b600254341015151561025657600080fd5b7f542e5b8acbe89c6eaa9d2db6046dd574f0c0b562b9394bca26a90316c50fee3533604051808273ffffffffffffffffffffffffffffffffffffffff1673ffffffffffffffffffffffffffffffffffffffff16815260200191505060405180910390a1565b60056020528060005260406000206000915090505481565b600042600460008473ffffffffffffffffffffffffffffffffffffffff1673ffffffffffffffffffffffffffffffffffffffff16815260200190815260200160002060009054906101000a900463ffffffff1663ffffffff1611159050919050565b3373ffffffffffffffffffffffffffffffffffffffff16600360009054906101000a900473ffffffffffffffffffffffffffffffffffffffff1673ffffffffffffffffffffffffffffffffffffffff1614151561039157600080fd5b8060028190555050565b3373ffffffffffffffffffffffffffffffffffffffff16600360009054906101000a900473ffffffffffffffffffffffffffffffffffffffff1673ffffffffffffffffffffffffffffffffffffffff161415156103f757600080fd5b8060018190555050565b60003073ffffffffffffffffffffffffffffffffffffffff1631905090565b60025481565b6000600154600560003373ffffffffffffffffffffffffffffffffffffffff1673ffffffffffffffffffffffffffffffffffffffff16815260200190815260200160002060008282540192505081905550610480336104fd565b610489336102d3565b90507faa2e06ab515c5e4687d2e65b137cbb0ee49814aa26c41ea0e9b5869aff35cc7f3382604051808373ffffffffffffffffffffffffffffffffffffffff1673ffffffffffffffffffffffffffffffffffffffff168152602001821515151581526020019250505060405180910390a150565b6000544201600460008373ffffffffffffffffffffffffffffffffffffffff1673ffffffffffffffffffffffffffffffffffffffff16815260200190815260200160002060006101000a81548163ffffffff021916908363ffffffff160217905550505600a165627a7a723058208aeb0fd1aa840bb9ad1798636dc0f264c9c7d754ee349cadee0bcbe26a7eb3a60029",
  "source": "pragma solidity ^0.4.4;\r\n\r\ncontract AdGridSystem {\r\n\r\n    // 设置领取奖励的冷却时间\r\n    uint cooldownTime = 10 seconds;\r\n\r\n    // 每天可以领取的ETH\r\n    uint256 public dailyPrize = 0.001 ether;\r\n\r\n    // 每次发布广告的价格\r\n    uint256 public publishPrice = 0.01 ether;\r\n\r\n    // 合约拥有者的地址\r\n    address owner;\r\n\r\n    // 发布广告事件\r\n    event PublishAd(address sender);\r\n\r\n    // 每天领取ETH事件\r\n    event DailyGetETH(address sender, bool isReady);\r\n\r\n    // 存放address到冷却时间的映射\r\n    mapping (address => uint32) readyTime;\r\n\r\n    // 存放用户账户的余额\r\n    mapping (address => uint) public balances;\r\n\r\n    // 函数装饰器--合约拥有者权限\r\n    modifier onlyOwner() {\r\n        require(owner == msg.sender);\r\n        _;\r\n    }\r\n\r\n    // 合约构造函数\r\n    function AdGridSystem() {\r\n        owner = msg.sender;\r\n    }\r\n\r\n    // 触发冷却函数\r\n    function _triggerCooldown(address _people) internal {\r\n        readyTime[_people] = uint32(now + cooldownTime);\r\n    }\r\n\r\n    // 检查是否冷却中\r\n    function isReady(address _people) public view returns (bool) {\r\n        return (readyTime[_people] <= now);\r\n    }\r\n\r\n    // 发布广告函数\r\n    function Publish() payable {\r\n        require(msg.value >= publishPrice);\r\n\r\n        // 触发发布广告事件\r\n        PublishAd(msg.sender);\r\n    }\r\n\r\n    // 每天获取奖励函数\r\n    function GetDailyETH() payable {\r\n\r\n        // 每天领取一次奖励\r\n        balances[msg.sender] += dailyPrize;\r\n\r\n        // 触发冷却一天的机制\r\n        _triggerCooldown(msg.sender);\r\n\r\n        // 触发文章点赞事件\r\n        bool _isReady = isReady(msg.sender);\r\n        DailyGetETH(msg.sender, _isReady);\r\n    }\r\n\r\n\r\n    // 查看合约余额\r\n    function contractBalance() constant returns(uint) {\r\n        return this.balance;\r\n    }\r\n\r\n\r\n    // 设置发布广告价格\r\n    function setPublishPrice(uint _publishPrice) onlyOwner {\r\n        publishPrice = _publishPrice;\r\n    }\r\n\r\n    // 设置每天奖励\r\n    function setdailyPrize(uint _dailyPrize) onlyOwner {\r\n        dailyPrize = _dailyPrize;\r\n    }\r\n\r\n}\r\n",
  "sourcePath": "C:\\Users\\maqingxiong\\Desktop\\qkl\\eth-ad-grid\\contracts\\AdGrid.sol",
  "compiler": {
    "name": "solc",
    "version": "0.4.23+commit.124ca40d.Emscripten.clang"
  },
  "schemaVersion": "2.0.0",
  "updatedAt": "2018-06-12T03:45:08.278Z"
}